S00F00006772626C2D76392E7372656392
S214080000E81A0020C9010800C5010800C501080053
S214080010C5010800C5010800C50108000000000069
S214080020000000000000000000000000C5010800F5
S214080030C501080000000000C5010800C501080049
S214080040C5010800C5010800C5010800C50108006B
S214080050C5010800C5010800C5010800C50108005B
S214080060C5010800C501080000000000C501080019
S214080070C5010800C5010800C50108000000000009
S21408008000000000C5010800C5010800C5010800F9
S214080090C5010800C5010800C5010800C50108001B
S2140800A0C501080000000000C5010800696A0800CC
S2140800B0C5010800F5870800F1850800C501080095
S2140800C0C5010800C5010800C5010800C5010800EB
S2140800D0C5010800C5010800C5010800C5010800DB
S2140800E0C5010800C5010800C5010800C5010800CB
S2140800F0C501080010B5054C237833B9044B13B175
S2140801000448AFF300800123237010BDC808002000
S214080110000000000C240900084B10B51BB1084865
S2140801200849AFF300800848036803B910BD074BB9
S214080130002BFBD0BDE81040184700BF00000000A9
S2140801400C240900CC0800200C240900000000003C
S214080150024A936B23F0080393637047000E0E4021
S21408016008B5044A936B43F008039363024B984719
S21408017008BD00BF000E0E405101080008B5022851
S21408018005D1044A936B43F00803936308BD024BFA
S214080190984708BD000E0E4051010800064B5B78D4
S2140801A0022B07D010B50446044B98472046044B4C
S2140801B0984710BD704700BF841400206953080094
S2140801C07D010800FEE700BF08B51A4B1A4A9A4296
S2140801D003D01A4B174A9A4204D3194B194A9A4223
S2140801E010D31BE013490A1D174B9B1A23F0030371
S2140801F00433114A134452F8040B41F8040B9A428C
S214080200F9D1EAE7114B124AD21A22F003021A442D
S214080210043B002143F8041B9342FBD10D4B23F00B
S214080220604323F07F030C4A93600C4B98470C4BB3
S2140802309847FEE7000000200C240900C8080020A4
S214080240E8160020C8080020CB080020CC080020AC
S214080250EB1600200000080000ED00E061CB080067
S214080260D13908004FF48063204A136002F5007203
S21408027013601F4B1B6A13F0807F07D11D4A1C4B67
S2140802801A621A46936E13F0010FFBD01A4A184BDF
S2140802901A621A46936E13F4803FFBD0144A136B07
S2140802A023F0030343F001031363936E13F0080F60
S2140802B0FBD0124A0E4B9A621A46936E13F0020F40
S2140802C0FBD011220A4B1A631A46936E13F0080FD6
S2140802D0FBD01222064B1A631A46936E13F0080FC9
S2140802E0FBD0074A074B1A60704700BF000A0E404B
S2140802F000060E400908370009083701013F0D209F
S21408030000BD01050000002000207047704700BFB0
S2140803107AB110B48A18002301240BB9DB0900E06F
S214080320234611F8010B0344DBB29142F5D15DF880
S214080330044B70472AB18218002300F8013B90420C
S214080340FBD10120704700BF120202F4706211430D
S21408035001600020704700BF0368090201F470615D
S21408036023F470630B430360704700BF0068C0F354
S21408037003207047A1F10E03012B17D910B50446C8
S2140803800C4B1B680C480360120222F07F4222F0D6
S214080390FF0242F0B442C9B20848201A18BF01202A
S2140803A011439847A06800F0060010BD4FF0FF30D4
S2140803B0704700BF08001000E4080020000A0E403E
S2140803C04840082310F0800F18BF80F089004000CE
S2140803D0C0B2013BF6D170470A4A136913F4007F8E
S2140803E0FBD0084BD8601A46136913F0020FFBD0EF
S2140803F0044A136913F0010FFBD0024B9868C0B289
S214080400704700BF008000402DE9F0410C4640F0E0
S21408041040063046144DA84700203146134EB047D4
S2140804208046270E3846A84740463946B047804695
S214080430C4F307473846A84740463946B04780467B
S214080440C4F307273846A84740463946B047074604
S214080450E4B22046A84738462146B04740F0010097
S214080460C0B2A847BDE8F081D9030800C103080058
S21408047070B54FF47A74FF26044D3046A84710F03E
S214080480800F02D0013CF8D1FF2070BDD9030800C8
S2140804902DE9F04106460D4B98470446012811D130
S2140804A0FF200B4FB8470546FF20B847000440EA30
S2140804B00565FF20B8478046FF20B847284340EA2E
S2140804C0082030602046BDE8F08100BF71040800AF
S2140804D0D903080070B50824FF26034D3046A84700
S2140804E0013CFBD170BD00BFD90308002DE9F047D9
S2140804F082B006460023C3604FF08052B14B1A63A1
S2140805000A24FF27B04D3846A847013CFBD1AF4A1E
S214080510D36B13F4807FFBD0AA4D4FF080576F63E0
S21408052000200146AA4B9847AA4B98470446AA4B70
S21408053098472F63FF2C00F01781012C40F0178195
S214080540A24AD36B13F4807FFBD09E4D4FF08057A2
S2140805506F6308204FF4D5719D4B984701A89F4BB1
S214080560984704469C4B98472F63F36843F001026C
S214080570F260FF2C00F0FE80012C06D014F0040F69
S21408058000F0FB8023F00103F360904AD36B13F46A
S214080590807FFBD08B4D4FF080576F633A20002149
S2140805A08B4B984768468D4B984704468A4B984726
S2140805B02F63FF2C00F0E480012C00F0148114F067
S2140805C0040F40F01081DEE00523012000FA03F155
S2140805D0114240F00D810133182BF7D108E100FADB
S2140805E003F1114202D1013B032BF8D1F36803F063
S2140805F001034FEA83794FF47A78744C714DE36BB4
S21408060013F4807FFBD04FF080576F6337200021AC
S2140806106F4B98476F4B984782466F4B98472F63A8
S214080620BAF1FF0F00F0B2801AF0FE0F40F0B1806A
S214080630E36B13F4807FFBD04FF0805AC5F834A0E4
S21408064029204946624B9847624B98470746624BB3
S2140806509847C5F830A0FF2F00F09E8017F0FE0FD1
S21408066040F09D803FB108F1FF38B8F1FF3FC6D192
S2140806706FF00100CAE0B8F1FF3F00F09380F3681E
S21408068013F0010F36D0514AD36B13F4807FFBD09A
S2140806904C4D4FF080576F633A2000214C4B9847DB
S2140806A068464E4B984704464B4B98472F63FF2C9B
S2140806B07BD014F0FE0F7BD1009A12F0100F40F09A
S2140806C09E800523012000FA03F1114240F097802E
S2140806D00133182BF7D192E000FA03F1114202D148
S2140806E0013B032BF8D112F0804F03D0F36843F098
S2140806F00203F360F36813F0020F18D1334AD36B82
S21408070013F4807FFBD02F4D4FF080566E63102079
S2140807104FF400712E4B98472E4B984704462E4BA5
S21408072098472E63FF2C46D014F0FE0F46D1274A72
S214080730D36B13F4807FFBD0224D4FF080566E6348
S2140807403B200021224B9847224B98470446224BD1
S21408075098472E63FF2C43D004F0FE04002C0CBFF1
S21408076000206FF0010051E04FF0FF304EE06FF0D0
S21408077001004BE04FF0FF3048E06FF0010045E025
S2140807804FF0FF3042E06FF001003FE04FF0FF30DF
S2140807903CE06FF0010039E04FF0FF3036E06FF0D4
S2140807A0010033E06FF0010030E04FF0FF302DE03D
S2140807B06FF001002AE04FF0FF3027E06FF00100ED
S2140807C024E000BF000E0E40D903080000140E40B7
S2140807D00904080071040800D504080091040800FC
S2140807E04FF0FF3012E0009A12F0100F3FF4ECAE14
S2140807F012F4000F7FF4FAAE16230120EFE612F487
S214080800000F7FF470AF1623012065E702B0BDE83D
S214080810F08700BFF8B5184AD36B13F4807FFBD077
S2140808204FF08052154B5A630D200021144B984701
S21408083040F2E734FF27134E3846B04785B210F02B
S214080840800F05D0013CB4F1FF3FF5D1FF2509E044
S214080850002C06DBFF200B4B984740EA052085B2A4
S21408086000E0FF25084B98474FF08052034B1A6369
S21408087045F3C030F8BD00BF00140E40000E0E4011
S21408088009040800D9030800D5040800002916DD65
S21408089030B405460144002015F8012B040A44EA42
S2140808A000239BB25340C3F30312534083EA033337
S2140808B09BB2D8B283EA40108D42EDD101E0002009
S2140808C0704730BC704700BF2DE9F8438846174686
S2140808D044F61F64FF26194D3046A847FE2807D061
S2140808E0013CB4F1FF3FF7D14FF0FF30BDE8F88385
S2140808F0002C1FDB002F0ADD444608EB0709FF26FD
S2140809000E4D3046A84704F8010B4C45F9D1FF2098
S2140809100A4DA847000284B2FF20A847204384B2A5
S21408092040463946064B9847201A18BF4FF0FF3006
S214080930BDE8F8834FF0FF30BDE8F883D903080018
S2140809408D08080038B5044615461D4AD36B13F4BF
S214080950807FFBD04FF080521A4B5A63E36813F03F
S214080960020F4FF0110008BF4902174B9847174B64
S2140809709847FF2806D14FF08052124B1A634FF063
S214080980FF3038BD10F0FE0F06D04FF080520D4BEA
S2140809901A636FF0010038BD204629464FF40072EE
S2140809A00B4B984704460B4B98474FF08052054B25
S2140809B01A63B4F1FF3F14BF00206FF0020038BD81
S2140809C000140E40000E0E400904080071040800CA
S2140809D0C9080800D5040800F8B514463E4AD36B83
S2140809E013F4807FFBD04FF080523C4B5A63C368A9
S2140809F013F0020F4FF0180008BF4902384B98470B
S214080A00384B9847FF2806D14FF08052334B1A636D
S214080A104FF0FF30F8BD10F0FE0F06D04FF08052B2
S214080A202E4B1A636FF00100F8BDFF202E4DA84725
S214080A30FE20A84704F500752B4E14F8010BB047A6
S214080A40AC42FAD128464FF0FF31284B9847054666
S214080A50C0F30720244CA047E8B2A0470924FF2685
S214080A60214D3046A8470746FF2804D1013CB4F17B
S214080A70FF3FF6D11FE0002C1DDB1D4CFF261A4D4C
S214080A803046A847FF2804D0013CB4F1FF3FF7D111
S214080A9011E0002C0FDB07F01F03052B14D0154BB5
S214080AA098474FF080520D4B1A63002F0CBF00205A
S214080AB06FF00200F8BD0F4B98474FF08052074B77
S214080AC01A636FF00200F8BD0A4B98474FF0805241
S214080AD0024B1A630020F8BD00140E40000E0E40AC
S214080AE00904080071040800D90308008D080800E6
S214080AF09F860100D504080030B585B00446764ABE
S214080B00136943F400631361744B596841F000712C
S214080B105960596941F000715961596841F080611E
S214080B205960196941F080611961196F21F0806177
S214080B301967596841F000615960196941F0006108
S214080B401961196F21F000611967196941F0805120
S214080B501961136943F080731361614B02221A60AE
S214080B60604A5A601A6B42F47F4242F002021A63E5
S214080B7001221A605C4B984728B120465A4B984782
S214080B80002840F09E802046584B9847584AD36B1A
S214080B9013F4807FFBD04FF08052504B5A630A20E4
S214080BA00021544B9847544B9847FF2804D14FF0E0
S214080BB080524A4B1A6312E010F0FE0F04D04FF032
S214080BC08052464B1A630AE02046694610224B4B71
S214080BD098474B4B98474FF08052404B1A63444A0D
S214080BE0D36B13F4807FFBD04FF080523B4B5A6395
S214080BF0092000213F4B98473F4B9847FF2804D1D0
S214080C004FF08052354B1A6362E010F0FE0F04D0A6
S214080C104FF08052314B1A635AE02046694610223C
S214080C20364B98470546364B98474FF080522B4B25
S214080C301A63B5F1FF3F4BD09DF800309B091FD1D2
S214080C409DF808109DF80720930043EA91129DF836
S214080C50063003F0030342EA832301339DF8092094
S214080C6002F003019DF80A20D20942EA4102023244
S214080C7093409DF8052002F00F02093A93400EE0D3
S214080C80E36843F00203E3609DF807109DF8082028
S214080C90130243EA01429DF8093013439B0263603E
S214080CA00123A3609DF80A3013F0400F0CD103F01F
S214080CB03F029DF80B30DB0943EA42030133A36089
S214080CC002E04FF0FF3005E001232360002001E03A
S214080CD04FF0FF3005B030BD00060E40000E0E4047
S214080CE00080004011000E00ED04080015080800FA
S214080CF000140E400904080071040800C90808001A
S214080D00D504080008B50348034B9847003018BFB9
S214080D10012008BDB8110020F90A0800024B18681F
S214080D20B0FA80F040097047B81100202DE9F84F56
S214080D300546884691460D4B9847061E13DA0A2440
S214080D400B4FDFF830B0DFF824A02846B84730B994
S214080D502846D847284641464A46D0470646002EE3
S214080D6001DA013CF1D13046BDE8F88F45090800A4
S214080D70ED04080015080800A3B12DE9F0411E4649
S214080D8014460D461644DFF82C80094F4046214687
S214080D902A46B84740B9013405F50075B442F5D17E
S214080DA0BDE8F081002070470120BDE8F08100BF53
S214080DB02D0D0800B81100202DE9F84F0546884685
S214080DC091460D4B9847061E13DA0A240B4FDFF898
S214080DD030B0DFF824A02846B84730B92846D847A8
S214080DE0284641464A46D0470646002E01DA013CC8
S214080DF0F1D13046BDE8F88FD9090800ED0408009F
S214080E0015080800A3B12DE9F0411E4614460D4604
S214080E101644DFF82C80094F404621462A46B84734
S214080E2040B9013405F50075B442F5D1BDE8F08146
S214080E30002070470120BDE8F08100BFB90D08000A
S214080E40B811002002398369023B99423DBF827877
S214080E50836A02FB01300020704700BF00F10B01D7
S214080E600023DA0142EA530310F8012B134403F077
S214080E70FF038842F5D11846704700BF78B108B519
S214080E80027872B1C2888A420DD14078074B9847DB
S214080E9000F00100002814BF0320002008BD092028
S214080EA07047092008BD092008BD00BF1D0D0800B1
S214080EB038B504460A46407804F1300101231D4D32
S214080EC0A84780BB94F82F2294F82E3243EA0223D0
S214080ED01BB2194A934228D194F8691094F86820EE
S214080EE0130443EA016294F86630134394F86720C3
S214080EF043EA022323F07F43104A934217D094F81C
S214080F00850094F884301B0443EA006094F8823025
S214080F10034394F8830043EA002020F07F43981A9E
S214080F2018BF012038BD032038BD022038BD002078
S214080F3038BD00BF790D080055AAFFFF464154008A
S214080F40F8B503681C78303C092C08D85D783A2D2B
S214080F5007D102330360042C00F2498102E0002422
S214080F6000E00024C04B53F824500D60002D00F01C
S214080F70408116462B7883B16878BC4B984710F0AA
S214080F80010F0AD1002E00F0368100F00400C0B22E
S214080F9000280CBF00200A20F8BD00232B70E0B202
S214080FA06870B34B984710F0010F40F026811EB1C9
S214080FB010F0040F40F0238128460021AD4B9847D7
S214080FC0012817D195F8F231002B00F01A8195F810
S214080FD0F92195F8F8311B0443EA026395F8F641BF
S214080FE0234395F8F74143EA042428462146A14BB3
S214080FF0984700E00024032800F00581002840F008
S214081000048195F83C2095F83B3043EA02231BB24E
S214081010B3F5007F40F0FB8095F8471095F846300A
S21408102053EA01210DD195F8572095F856301B0440
S21408103043EA026395F854100B4395F8551043EAB3
S2140810400121E96195F840E085F803E00EF1FF33E9
S214081050DBB2012B00F2DD8095F83D30AB70002B3B
S21408106000F0D9805A1E1A4240F0D78095F8427090
S21408107095F8412042EA07272F8117F00F0F40F016
S214081080CE8095F8440095F8432052EA00220DD108
S21408109095F8536095F85220120442EA066695F8C9
S2140810A05020324395F8510042EA002295F83F60F6
S2140810B095F83E0050EA062000F0B3800EFB01FECD
S2140810C000EB17167644B242C0F0AD80921BB2FB16
S2140810D0F3F3002B00F0A98040F6F57293428CBF1C
S2140810E0022201224FF6F57C634500F2A880E2E072
S2140810F095F85F0095F85E20120442EA006095F8BD
S2140811005C20024395F85D0042EA00226A629B0072
S21408111003F2FF13B1EB532FC0F08980B2E070449E
S2140811206862022A0FBF5B0003EB430003F001036B
S21408113003EB500392E095F82F2295F82E3243EAF7
S21408114002231BB24C4A934241D195F8332095F8B6
S21408115032301B0443EA026295F83030134395F8A0
S214081160312043EA0223454A934232D195F81722A2
S21408117095F816321B0443EA026295F814321343B4
S21408118095F8152243EA02233D4A934223D195F85F
S2140811901F2295F81E321B0443EA026295F81C3299
S2140811A0134395F81D2243EA0223EB6095F81B22A9
S2140811B095F81A321B0443EA026295F8183213436C
S2140811C095F8192243EA02232B61032204E003223E
S2140811D002E0032200E003222A70234A938A01339E
S2140811E09BB29382EB800020E8622871F8BD0B2042
S2140811F0F8BD0C20F8BD0020F8BD0320F8BD0A2075
S214081200F8BD0D20F8BD0120F8BD0D20F8BD0D2055
S214081210F8BD0D20F8BD0D20F8BD0D20F8BD0D2039
S214081220F8BD0D20F8BD0D20F8BD0D20F8BD0D2029
S214081230F8BD0D20F8BD0D20F8BD0D20F8BD023311
S214081240AB612644AE6220442862002FF1D14FE7F6
S2140812504FF0FF332B610023EB60BDE703F2FF136B
S214081260B1EB532FE7D3F3E7E80800201D0D08007D
S214081270050D0800B10E080055AAFFFF525261413D
S214081280727241614FF0FF332B610023EB606B7184
S21408129095F8612095F8603043EA022222446A6194
S2140812A0687805F130010123074CA04700283FF471
S2140812B042AF032290E70233AB612644AE62204475
S2140812C02862002FB9D02AE7790D08002DE9F047E3
S2140812D0C76A8F4231D00E46044603790BB300F135
S2140812E03008407841463A4601231A4DA84738BB8D
S2140812F000232371E269236A13449F4211D2E578DA
S214081300012D0ED94FF0010ADFF84890E3691F4413
S214081310607841463A465346C847013DEDB2012D2E
S214081320F4D186B1607804F13001324601230A4DC3
S214081330A84758B9E662BDE8F0870020BDE8F08700
S2140813400120BDE8F0870020BDE8F0870120BDE851
S214081350F08700BF050E0800790D080001295FD93F
S214081360F8B5836999425DD20C4606460378022B87
S21408137028D0032B39D0012B56D101EB5107016A2F
S21408138001EB5721304B9847002850D1C7F3080384
S214081390334493F830500137316A304601EB572111
S2140813A0294B9847002845D1C7F30807F11991F843
S2140813B0300045EA002014F0010F14BF0009C0F3FE
S2140813C00B00F8BD016A01EB14211F4B9847002853
S2140813D033D1610001F4FF71731893F8303031444B
S2140813E091F8310043EA0020F8BD016A01EBD411F8
S2140813F0154B984720BBA10001F4FE7101F130029D
S21408140032449078D3781B0643EA0043507843EA80
S2140814100020314491F83030184320F07040F8BD71
S214081420012070470120F8BD4FF0FF30F8BD4FF09F
S214081430FF30F8BD4FF0FF30F8BD4FF0FF30F8BD75
S2140814404FF0FF30F8BD00BFCD120800F8B50546CE
S2140814500C46E9808168012938D003689A69914268
S21408146036D271B91A78032A01D1596A49B90022C5
S214081470EA601A89A2422DD95B6A03EB14132B6122
S2140814801BE09E783601B44210D3164F2868B8473A
S2140814900146B0F1FF3F1FD001281FD92B689B6972
S2140814A098421DD2A41BA4B2A642EFD9E9602868C8
S2140814B00D4B984700EB1410286104F00F035B01EE
S2140814C030332A6813446B610020F8BD0220F8BD4B
S2140814D00220F8BD0220F8BD0120F8BD0220F8BDA4
S2140814E00220F8BD5D130800450E08002DE9F041FE
S2140814F00C4601297CD9054617468369994279D254
S2140815000378022B3DD0032B4DD0012B68D101EB7D
S2140815105108016A01EB5821414B984706460028B6
S21408152063D1C8F3080314F0010F16D02B4493F8C0
S214081530302002F00F02F9B242EA011283F8302096
S21408154008F1010801232B71296A284601EB582166
S214081550334B9847002845D14EE02B4483F830702B
S21408156008F1010801232B71296A284601EB582146
S2140815702B4B9847C0BB44E005EB080383F8307054
S21408158033E0016A01EB1421254B9847064660BBF9
S214081590640004F4FF742B1983F83070C7F3072728
S2140815A083F8317021E0016A01EBD4111C4B98478F
S2140815B00646D0B9A40004F4FE7404F130022A44A6
S2140815C0D3781B062C4403F070431F4384F830700E
S2140815D0C7F3072353703B0C93703F0ED77004E095
S2140815E0022602E0064600E0064601232B7114E0B8
S2140815F0022612E0022610E0C8F30808C7F3071709
S214081600BAE7C8F3080805EB080393F8303023F068
S2140816100F03C7F303271F43AEE73046BDE8F08144
S214081620CD1208002DE9F8430546884631B9C66844
S2140816306EB183699E4228BF012609E02C4B984765
S214081640012842D9AB69984250D3464600E00126A5
S21408165034464FF00209264F0134AB699C4202D348
S214081660012E35D94C4628462146B84738B1B0F140
S214081670FF3F30D0012832D0B442EDD132E02646C2
S214081680284621466FF070421A4B98470346A8B979
S214081690B8F1000F06D0284641462246154B984713
S2140816A0034658B9EE602B69B3F1FF3F1DD0013BE6
S2140816B02B6101236B712046BDE8F883012B0CBF14
S2140816C04FF0FF300120BDE8F8830120BDE8F8831D
S2140816D00020BDE8F8834FF0FF30BDE8F88301200E
S2140816E0BDE8F8830020BDE8F8832046BDE8F88307
S2140816F05D130800ED1408002DE9F84FC48801347E
S214081700A4B2002C70D00369002B70D00E46054694
S21408171014F00F075FD101330361C16821B903686C
S2140817201B89A34266D956E000688378013B13EA12
S214081730141350D13D4B9847804601285DD9B0F127
S214081740FF3F5DD02868836998453DD3002E5AD060
S214081750E968374B98478046002857D0012858D064
S214081760B0F1FF3F58D028680021324B9847002830
S21408177055D12B6803F1300203F50C73002102F8EB
S214081780011B9A42FBD12E68304641462A4B9847A1
S214081790F06200264FF0010BB246DFF898900BE097
S2140817A083F804B028685146C8470136002839D15E
S2140817B02A68D36A0133D362F1B22B689A788A42D0
S2140817C0EED8DA6A521ADA62C5F80C8028684146FA
S2140817D0194B98472861EC807F0130372B681F44E7
S2140817E06F610020BDE8F88F0420BDE8F88F04205C
S2140817F0BDE8F88F0420BDE8F88F0220BDE8F88F12
S2140818000120BDE8F88F0420BDE8F88F0720BDE862
S214081810F88F0220BDE8F88F0120BDE8F88F012078
S214081820BDE8F88F0120BDE8F88F00BF5D130800FB
S21408183025160800CD120800450E08002DE9F84FB9
S21408184004464FF0FF0A55460423454FDFF81C911F
S21408185009F10D086EE02068B847064600286ED1E4
S21408186060690378002B74D0C27AE52B55D02E2BEE
S21408187055D002F03F0112F0080F02D00F2950D1C0
S21408188001E00F2940D113F0400F06D090F80DA0C4
S21408189003F0BF03E288228403E09D4218BFFF25B9
S2140818A042D1467B56453ED1D4F81CC0027802F099
S2140818B03F02013A02EB420502EB850549464FF026
S2140818C0010E4FF6FF7A11F8012B00EB020B9BF87E
S2140818D001B0825C42EA0B22BEF1000F06D0FE2D54
S2140818E030D82CF815209646013501E0524529D106
S2140818F04145E8D1027812F0400F26D0FE2D21D8B7
S21408190000222CF8152020E01DB9164B98475045A4
S21408191023D04FF6FF7323841FE0FF2504E0FF253E
S21408192002E0FF2500E0FF25204600210E4B9847E1
S214081930034680B9216900298DD11E466BB1002364
S21408194023610AE0B246FF25EEE7013BDDB2B24668
S214081950EAE70426F3E70646F1E73046BDE8F88FDF
S214081960CD1208005D0E0800F916080014100900CC
S2140819702DE9F041864601F109020369002B64D07F
S214081980446994F80CC02378202B1DD0264601F114
S21408199011074FF0E5080CF00800C0B203E016F88F
S2140819A0013F202B12D0052B08D040B1A3F14105EA
S2140819B0EDB2192D03D82033DBB200E0434602F817
S2140819C0013BBA42EBD102E0174600E01746237AFD
S2140819D0202B1ED07D1C2E233B70237A202B1AD05A
S2140819E004F108083A1D0CF0100C5FFA8CF003E0BE
S2140819F018F8013F202B10D030B1A3F14106F6B2FB
S214081A00192E9CBF2033DBB205F8013B9542EFD177
S214081A1004E03A4602E02A4600E02A46E37A0B72D9
S214081A20E57FA07F030443EA0560237F0343607FC6
S214081A3043EA00230B60607E237E43EA00238B8004
S214081A40E07DA37D43EA0023CB80002313708E69D4
S214081A505EB3CB694BB3DEF81020DAB1BEF82000CF
S214081A604FF6FF72904217D0DEF81C20941C1088A0
S214081A70A0B1012B14D0751E002203E0CB69013BF0
S214081A8093420FD9013205F8010F34F8020B0028EB
S214081A90F4D108E0002206E0002204E0002202E07A
S214081AA0002200E000220023B354BDE8F08100BF06
S214081AB0612809D009490022013231F8023F5BB19A
S214081AC08342F9D108B906E00022054B03EB42022F
S214081AD0B2F8F00170470020704700BF24100900D4
S214081AE0141009002DE9F04F87B0054600216A4B0F
S214081AF09847002840F0BE804FF0FF09C846674F59
S214081B00674B0D330193DFF8A4A128682969B84705
S214081B10002840F0B0806C692678002E00F0AC8073
S214081B20E37A03F03F02E52E7AD013F0080F02D0CE
S214081B300F2A78D101E00F2A55D1D5F81CB0BBF191
S214081B40000F00F08F8016F0400F06D094F80D9026
S214081B5006F0BF06EB882B8404E0B04518BF4FF0AC
S214081B60FF087FD1637B02934B455FD123780493AC
S214081B7023F04003013B03EB430203EB8209DFF843
S214081B802081012105960395019E18F8013BE2186D
S214081B905278E35C43EA022091B1424B98470546E7
S214081BA0B9F1FE0F45D809F1010300933BF8190077
S214081BB03C4A90470146854241D1DDF8009003E053
S214081BC04FF6FF73984240D1B045DED1059E039D7F
S214081BD0049B13F0400F55D0002953D03BF819301A
S214081BE0002B4FD037E0B8F1000F03D12046D0477E
S214081BF0484543D04FF6FF732B84AB69DA7A12F068
S214081C00010F2DD104F10B0001E0844238D014F8FE
S214081C10011B13F8012B9142F7D04FF0FF0821E083
S214081C204FF0FF081EE04FF0FF081BE04FF0FF08DC
S214081C3018E0039DDDF808904FF0FF0812E0039DBA
S214081C40DDF808904FF0FF080CE0039DDDF80890DB
S214081C504FF0FF0806E0DDF808904FF0FF0801E0B7
S214081C604FF0FF08284600210F4B984700283FF4FE
S214081C704CAF0DE00CE00BE0042009E0002007E084
S214081C80002005E0013E5FFA86F8DDF80890E9E7EF
S214081C9007B0BDE8F08F00BF4D140800CD1208004D
S214081CA014100900B11A0800F91608005D0E08009D
S214081CB02DE9F04F83B0824688460B782F2B01D04B
S214081CC05C2B01D108F101080023CAF8083098F8FF
S214081CD000301F2B08D850460021B04B98470346C3
S214081CE00022CAF8142055E1DFF8BC92C64618F858
S214081CF0013B2F2BFAD05C2BF8D0DAF81C209EF884
S214081D000050A8B21F2840F21F812F2800F0228119
S214081D105C2800F02281002800F03581971E764660
S214081D2001230DE02F2800F01A815C2800F01781A7
S214081D30B1F5807F00F02781002800F024810B464B
S214081D407F2809D8222D00F0DB804C4614F8011FA6
S214081D5011B18D42FAD1D3E027F8020F591C16F8B4
S214081D60015FA8B21F28DDD8F0E0002B00F0C8807D
S214081D7002EB430434F8021D202901D02E2902D193
S214081D80013BF7D1BCE0002B00F0FD805E0000218F
S214081D9022F81310DAF8181001F10B05202401F8C0
S214081DA0014BA942FBD1951E002100E0013135F810
S214081DB0024F202CFAD02E2CF8D0002900F0D38021
S214081DC040F00300CFE0013B05D14FF0080E002796
S214081DD03E46019304E034F8025D2E2DF3D1F4E775
S214081DE04C1C32F81110002955D0202904D02E2971
S214081DF006D1A34200F0C98040F003002146EFE771
S214081E00774502D2A34218D1BFE0BEF10B0F07D127
S214081E1040F00300DAF818301A78E52A4DD140E089
S214081E20A34203D040F003009C4234D8B600F6B272
S214081E3001994FF00B0E0827D2E77F2940F29A80C7
S214081E40574D294491F850B31FFA8BF140F0020021
S214081E5059B1BBF12B0F08D0DFF850C11CF8015F51
S214081E60002D00F08980AB45F8D140F003005F21D3
S214081E700BE046F0020608E0A1F16105ADB2192DA7
S214081E8003D846F00106203989B2DAF81850E95521
S214081E9021460137A4E7DAF818301A78E52A06D179
S214081EA001E04FF00B0E05221A70334600E0334669
S214081EB0BEF1080F04BF9B00DEB206F00C030C2B25
S214081EC003D006F00302032A01D140F0020010F006
S214081ED0020F09D106F00306012E08BF40F01000D5
S214081EE0042B08BF40F00800DAF81830D8725046BD
S214081EF02C4B9847DAF81830DA7A034660B101E0D6
S214081F00062347E0042845D102F00403DBB2002B81
S214081F1014BF034605233DE012F0040F3AD1DAF861
S214081F201420D37A13F0100F0CD0517D137D43EA9A
S214081F300121D37E927E42EA032343EA0143CAF88C
S214081F400830D3E6052325E0002301210EEB01081F
S214081F5004200AE70023012101E0002301210EEBFB
S214081F600108002001E7B51E5419555B2E2D3FF4D5
S214081F702CAF28E78B466CE7A1F14105ADB2192DC9
S214081F807FF677AF78E7062304E0BEF10B0F7FF401
S214081F904DAF3DE7184603B0BDE8F08F4D14080076
S214081FA014100900E51A08006414090070140900E2
S214081FB004280DD8074B53F820300BB100221A70AE
S214081FC009B100230B70034B43F82010002070471C
S214081FD00B207047E808002010B586B0044606A80F
S214081FE040F8141D21460022184B9847034650BB5C
S214081FF003ABA361164BE36120460199154B98473E
S214082000034688B96369ABB1DA7A12F0100F0FD0BD
S214082010597D1A7D42EA0121D87E9A7E42EA00233B
S21408202043EA0143A36005E0042B08BF05230AE042
S214082030052308E02368DB88A38020460021064B9A
S21408204098470346F0E7184606B010BD410F08004B
S21408205000090020B11C08004D14080070B584B0B3
S21408206004460E460068A188154B9847054618BBD7
S2140820702EB920460021134B984705461CE001ABB5
S214082080A361114BE3612046104B9847042802D100
S2140820900023236100E060B9204631460C4B984780
S2140820A0204600210B4B9847042804D100232361BF
S2140820B002E0054600E00546284604B070BD00BFAD
S2140820C07D0E08004D140800000900203D18080081
S2140820D071190800F91608002DE9F843054610207E
S2140820E0294CA04780462846284EB0470130A047CE
S2140820F00446C8F80C002846B047421C2046294625
S214082100234B9847234B1A8801321A80D3F8049039
S214082110B9F1000F0AD1C3F80480C3F80880002379
S214082120C8F80430C8F80830BDE8F8832846174BC6
S214082130984707464C46184E00E01C46E068294675
S2140821403A46B04700280DDA6368002BF5D1C4F884
S2140821500480C8F80840C8F804300E4BC3F8088056
S214082160BDE8F8834C4504BF0A4BC3F80480A3684F
S214082170C8F80830A368C3F80480C4F80880C8F80C
S2140821800440BDE8F88300BFB1CB080099D3080027
S214082190DDD00800000B0020F5D30800014B188896
S2140821A0704700BF000B0020084B1B88013B984275
S2140821B00ADC064B5B6808B9D86870475B68013864
S2140821C080B20028FAD1F7E700207047000B0020FD
S2140821D038B50C4B5868A0B144684CB10A4D00E0BD
S2140821E01C46A84763682046002BF9D10CB903E0C3
S2140821F004462046044B9847024B00225A609A60D1
S2140822001A8038BD000B0020C1CB080030B4B1F5E9
S214082210402F06D3A1F54024C4F30F24C9B2084DB5
S21408222005E0A1F50024C4F30F24C9B2054D00B19A
S214082230056002B1148003B1198030BC704700BF36
S214082240000C0E40000A0E4070B506460D460548BE
S21408225031462A46044CA047044831462A46A04739
S214082260002070BD000A0E4049030800000C0E400E
S2140822702DE9F04F85B004468B469246009303A896
S21408228021460DF10A0202AB314CA0470398314BA8
S21408229098470190039806212F4B9847BAF1000FEC
S2140822A04ED0DFF8C08008F1FC05BDF80860C6F51A
S2140822B08077574528BF5746BDF80A30039A2749FE
S2140822C08A420CBF03F5006303F540631C024046D0
S2140822D021463246DFF89090C84708EB0600594674
S2140822E03A46C847B919C6F58072D21B08EB0100F2
S2140822F0214492B2C847A8F10403043C53F8042FBB
S21408230044F8042FAB42F9D1009B33B1039803215C
S214082310BDF80A20124B984705E003980121BDF83E
S2140823200A200F4B984780B9BB44BDF80A300133E2
S214082330ADF80A300023ADF80830BAEB070AB4D176
S21408234003980199044B9847002005B0BDE8F08F24
S2140823500D2208006D03080059030800000A0E4005
S214082360750308000C0B0020DDD0080030B583B0DC
S21408237020F47F5525F03F056FEA91346FEA8434E0
S21408238002B1156003B11C6001A829460DF10202CE
S2140823900023114DA847002021466A460346A84751
S2140823A0BDF80220BDF80030934210D908250B4C22
S2140823B001982946A04760B9BDF80220403292B27B
S2140823C0ADF80220BDF800309342F1D801E00020B5
S2140823D0FFE703B030BD00BF0D22080075030800F4
S2140823E030B583B020F47F5525F03F056FEA913469
S2140823F06FEA843402B1156003B11C6001A829464F
S2140824000DF102020023114DA847002021466A4616
S2140824100346A847BDF80220BDF80030934210D9FD
S21408242009250B4C01982946A04760B9BDF802203B
S214082430403292B2ADF80220BDF800309342F1D88F
S21408244001E00020FFE703B030BD00BF0D22080002
S2140824507503080008B500200621014B984708BDFB
S2140824604922080000F5402000787047B0F5802F14
S21408247026D210F0030F25D12DE9F04116468846DE
S21408248000F5402702F53F2404F6FF740444384656
S2140824902146002213460F4DA847A8B9384641469C
S2140824A0324601230C4DA84788B9384621460022F3
S2140824B013460A4CA047B0FA80F04009BDE8F08100
S2140824C000207047002070470020BDE8F0810020FB
S2140824D0BDE8F081E1230800712208006D2308009A
S2140824E010B5084C204600214422074B9847002088
S2140824F004F12801054B984710B90720044B984764
S21408250010BD00BFC8110020C9D1080021800800EE
S214082510F172080008B502480249034B984708BDFF
S214082520E4110020881400204996080000000000E6
S2140825302DE9F04F99B08246964C2046002140225D
S214082540954B9847621C954B03CBC4F80100C4F81A
S21408255005101B88A4F8093000238DF847309B46E1
S2140825601D460A9306930993D1E2A4F14102D2B21A
S214082570192A01F20080013318A901F8193D5046BE
S21408258010AA874B9847002800F0F787109FDFF8B7
S2140825902C923846C847834B9847DFF82482C047B2
S2140825A0C6B23046804B9847014638467F4B984718
S2140825B07F49804B9847C8477F4B9847C04780B2AB
S2140825C0472C03D04D2C00F0B3811BE25E2E00F2A0
S2140825D0D687DFE816F0C000C000C000C00068005C
S2140825E0D407D407D407D407D4075F00D407D40782
S2140825F0D407D407D407D4073F013F013F016C0135
S2140826006C01D407D407D407D407D407D4075F00CF
S214082610D4075F00D407D407D407D407D407D40751
S214082620D407C000D4079501D407D4077401D4078B
S214082630D407D407D407D4077401D407D407D4071B
S21408264068008B018B018B018B018B018B01D407F2
S2140826509001D407D407D407D407D407D407D407DF
S214082660D407D407D407D407D407D407D407D40785
S214082670D407D407D407C600D407D407D407D4078A
S214082680D407D407D407D407D407530153015F00EF
S21408269064016401002841F01280099B002B00F0B9
S2140826A0F78700F06EBF1C2E1DD004D8042E0CD061
S2140826B00A2E11D026E1352E37D05C2E3CD01E2EA1
S2140826C040F0208120E0012309930122314B1A7043
S2140826D000221CE10123099302222E4B1A700022C5
S2140826E015E10123099318B10A2806D000F04BBF5C
S2140826F00322284B1A7000220FE10422254B1A7079
S21408270000220AE10123099318B10A2806D000F02E
S2140827103CBF05221F4B1A700022FEE006221D4B06
S2140827201A700022F9E0012309930722194B1A7040
S2140827300022ECE00123099318B10A2806D000F01D
S21408274026BF0822134B1A700022E6E00922114B16
S2140827501A700022E1E0099B002B40F01A8702233A
S2140827600993022E2ED003D856B1012E0DD0CBE0F9
S214082770262E31D0502E68D0032E40F0C58026E095
S2140827800022044B5A700122C1E00122014B5A7004
S214082790BDE000BF0C120020C9D10800C8110020F7
S2140827A0D144080065A208008DC6080021C50800A7
S2140827B00000C84235C7080031A108000DBE080051
S2140827C039C4080002229D4B5A7001229FE003225A
S2140827D09A4B5A7001229AE014381E2800F2DB86BB
S2140827E0DFE810F01F00D906D906D906D906D9069B
S2140827F0D906D906D906D9062400D906D906D9068F
S214082800D906D906D906D906D906D9062900D90679
S214082810D906D906D906D906D906D906D906D906B3
S2140828202E000422854B5A70012276E00522834B3F
S2140828305A70012271E00622804B5A7001226CE021
S21408284007227E4B5A70012267E008227B4B5A709B
S21408285001225CE0122E08D0132E0BD0112E55D173
S2140828600022764B5A71022251E00122734B5A71AC
S21408287002224CE00222714B5A7148E038B95A2EAF
S2140828800CBF002201226D4B1A71032245E00A286C
S21408289040F083865A2E00F0828604223DE05D2EA4
S2140828A00CBF01220022654B9A7005222FE0142ED9
S2140828B00CBF01220022614BDA70062227E0099B32
S2140828C0002B40F06E86312E06D100225B4B9A71A3
S2140828D008220323099320E00A2840F06486012290
S2140828E0564B9A7108220323099316E0363E534B3B
S2140828F0DE7109220BE0002840F057860A220CE019
S214082900072204E0002202E0012200E0022220B1B1
S21408291000F04DBE00220123099345FA02F313F096
S214082920010F40F04686012393401D43ADB2EEE00A
S214082930002840F040861E2E00F23F86DFE816F09C
S2140829401F001F001F002E002E002E003D063D060D
S214082950430043003D063D063D063D063D063D0652
S2140829603D063D063D063D063D063D063D063D0642
S2140829703D063D063D063D063D063D061F00022E69
S21408298007D01E2E05D06EBB01222C4B1A720B22C6
S2140829902DE00222294B1A720B2228E0042E08D0BA
S2140829A0052E0BD0032E1FD10122244B9A720C221F
S2140829B01DE00222214B9A720C2218E000221F4BBF
S2140829C09A720C2213E0082E02D0092E05D00DE0CC
S2140829D002221A4B5A720D2209E00022174B5A722D
S2140829E00D2204E00B2202E00C2200E00D2245FA3C
S2140829F002F313F0010F40F0E285012393401D43D4
S214082A00ADB284E0463C142C00F2DB85DFE814F017
S214082A101800D905D9051C0024002C003400D90557
S214082A203800D9053F00D905430047006300D9059B
S214082A30D905D9054B0053005B0000BF0C120020D7
S214082A40974BDF60002347E0954B1F610A9B43F0D6
S214082A5001030A9301233FE0914B5F610A9B43F011
S214082A6002030A93022337E08D4B9F610A9B43F0CB
S214082A7004030A9303232FE0894B1E7704232BE0D5
S214082A803846884B9847864B1862052324E0844BC3
S214082A905F62062320E0824B9F6207231CE0804B80
S214082AA0DF62082318E07E4B5F63069B43F0010352
S214082AB006930A2310E07A4B9F63069B43F00203B3
S214082AC006930B2308E0764BDF63069B43F004036C
S214082AD006930C2300E009231C464BFA03F212F077
S214082AE0010F40F0708540F2613242FA03F313F0AA
S214082AF0010F06D0384600216B4B9847002840F057
S214082B0064850123A34043EA0B0B1FFA8BFB9DF851
S214082B1047301AF80340002C7FF427AD5C46069B26
S214082B2023B1099B002B08BF0223099304F0200356
S214082B309BB22BB15A4B1A6A5C4B9A4200F34785F4
S214082B40574B9B78012B07D1099B022B1FD114F0FA
S214082B50010F00F03E851AE0554B5B78BBB914F0C0
S214082B60010F10D04E4BDB78012B10D14C4EF0687D
S214082B70504B984748A3D3E900234F4FB8474F4BCD
S214082B809847F06003E04A4B1A69454BDA6004F44C
S214082B9080739BB21BB9464BDA68414BDA62404BEE
S214082BA01B78012B09D104F040039BB2002B00F0E0
S214082BB0128524F040041FFA84FB394B5B7993B1E5
S214082BC0012B0CBF012200220C920BBF4FF0000A0B
S214082BD04FF0020A4FF002094FF00109304BDB783C
S214082BE0012B2BD109E02E4BDB78012B20D10223B9
S214082BF00C934FF0010A4FF00009314E00242D4F78
S214082C00DFF8B4800D95069D45FA04F313F0010F1E
S214082C1008D03068B84720A3D3E90023C047274B1D
S214082C209847306001340436032CEDD10D9D05E03D
S214082C3002230C934FF0010A4FF00009099B032B5F
S214082C4007D1174B9B79012B03D1069B042B40F029
S214082C50C4841C4B93E8070018AB03E9070005F487
S214082C6000739BB273B10E4BD879062800F2B7846E
S214082C700F4B9B79834205D015A9134B984700281C
S214082C8000F0AF84064B1C78022C1FD0082C7FD08F
S214082C90ACE000BFAFF300806666666666663940DD
S214082CA00C120020C1CA080071CA08007F96980056
S214082CB0C81100200DBE0800B5BE080079C408007B
S214082CC040120020F011002021800800069B002BEF
S214082CD000F089841BF0500F00F08784914B586AE7
S214082CE0914B9847914B9847914B9847C0B2062806
S214082CF000F27D848B4B1B7F142B08D0022B40F0F0
S214082D0078840BF080039BB2002B40F074842BF081
S214082D1050031FFA83FB18B101385FFA80F802E007
S214082D20804B93F80780404612A9824B98470028A4
S214082D3000F063847B4E337F0D937F4D2B6C0E9390
S214082D4034361C3500247D4F069B234113F0010FB3
S214082D5017D00D9B142B10D12868A969B84731687D
S214082D60B84712AB43F82400E3B2022B09D10E99F8
S214082D70B84712AB43F8240003E0326812AB43F8B6
S214082D802420013404360435032CDDD100F0C2BCFF
S214082D90069B002B00F03384694E6A4D0024674F6B
S214082DA0069B234113F0010F15D0306815AB53F876
S214082DB02410B8472968B8472860E3B2022B0CD11C
S214082DC004F10C08574C04EB88045B4B196C5B4BFE
S214082DD09847606071E0B3692B60013404360435A7
S214082DE0032CDDD14FF0000800F094BC099B032BA0
S214082DF039D0069B002B00F082844A4E33790E9316
S214082E004F4F34360025DFF840810D95069B2B4141
S214082E1013F0010F02D13B6833601DE0072C1BD06E
S214082E200E9BABB915AB53F82500B969C047316896
S214082E30C0473060EBB2022B0ED10D9B0C33394DD8
S214082E4005EB83053C4B196C3F4B984768600AE0D6
S214082E5030683968C0473060013504370436032DBA
S214082E60D3D100F041BC052C14D0072C20D0032C5D
S214082E7023D1069B002B099B08BF0023099301E07A
S214082E8000230993062012A92A4B9847002800F029
S214082E90B88312E0069B002B099B08BF0023099302
S214082EA0072012A9234B9847002800F0AC8304E0BB
S214082EB01C4B5B78012B00F2A8831A4B5C78082C15
S214082EC00AD1069B002B00F0BC814FF00008099B36
S214082ED0012B40F09C83BEE14FF00008099B022BB3
S214082EE040F0B18124B9069B002B00F02084B2E1A3
S214082EF00C4BD8680021154B9847002840F089836A
S214082F00013C062C00F29F81DFE814F0070022003F
S214082F1022008001800180018001069B002B00F0C2
S214082F20068498E10C1200200DBE080065A2080071
S214082F3039C4080021800800C811002021C50800EF
S214082F40E41100204012002025C508005DCA0800CC
S214082F50069B002B00F05F83CDF83890CDF83CA098
S214082F60012303FA0AF403FA09F31C43069B1C42DE
S214082F7000F05383624E06EB8902624D05EB890327
S214082F80614F506BD969B847069006EB8A0605EB81
S214082F908A05706BE969B8470D900BF080039BB201
S214082FA0002B00F0CB802BF080031FFA83FB554BD9
S214082FB0D869534B596B554B9847002800F0B18396
S214082FC0504B186A4E4B996B504B9847002800F0A8
S214082FD0A8834C4B586A4A4BD96B4C4B98470028E9
S214082FE000F09F832120AAE3454CA06A484B9847E7
S214082FF041A3D3E90023474DA847474B9847A0620B
S214083000434E3F4B986AB047CDE90A01414C00222F
S214083010424BA04702460B46DDE90A01A047CDE928
S2140830200A013F4D06990846A847B04702460B4690
S2140830303C4CDDE90A01A047CDE90A010D9908468E
S214083040A847B04702460B46DDE90A01A047324BBF
S214083050984704460021344B9847002840F0DF8202
S21408306035462046B047314B984706460C460698E4
S2140830700D992F4B984704F10044A84702460B4683
S214083080304621462B4CA047234B984704461C4BFA
S2140830905B78032B08BF00F10044194B9D6A28464D
S2140830A00021214B984728B104F1004405F100455A
S2140830B0134B9D62124F0E9E023607EB8606184D7E
S2140830C00D982146A847014606980F4B98474FF09B
S2140830D07C51A847B0600F9B023307EB830706981E
S2140830E02146A8470D99144B98474FF07C51A8479E
S2140830F0B860B0E0AFF3008066666666666639401C
S2140831000C120020C811002021C508005DCA08005E
S2140831100DBE0800B5BE080079C4080000001040BF
S21408312035C708004DBB080071CA0800DDA20800B4
S2140831301D46080009C1080025C508000A9B1C4250
S21408314000F06F822BF00E031FFA83FB8A4BDB78A6
S214083150012B15D1894D0024894E8A4F0A9B23419D
S21408316013F0010F08D02868B0477DA3D3E90023E1
S214083170B847854B9847286001340435032CEDD1B1
S2140831807D4F0E9D023507EB8505804E0698A9688B
S214083190B04706900F9C023407EB84040D98A1688C
S2140831A0B047014606987A4B98470690A868A168E3
S2140831B0774B98470446B86206982146B04720F0F1
S2140831C0004528466E4B9847CDE9060166A3D3E925
S2140831D00023704EB04700283DD028464FF07C515B
S2140831E06D4B9847002840F01E822046644B98474F
S2140831F05FA3D3E90023634CA04702460B46DDE9EC
S2140832000601B047002840F0398224E0069B002BD0
S21408321000F03682614BD869574B596B604B98471C
S214083220C8B15E4B186A544B996B5D4B984790B182
S2140832305A4B586A504BD96B594B984758B121206E
S2140832407DE24FF00008099B2BB92BF4487323F056
S21408325001039BB204E02BF4F95323F001039BB25D
S214083260002B40F00F824D4B434A116A99619178C2
S2140832705970D1681961D46AD8682146484B98476E
S21408328048B9464B587A10B12146464B98473A4BB0
S214083290DA6A424BDA60414B374A92F830101975B1
S2140832A0907A5B7A834206D03C4CE1683D4B98475F
S2140832B0314B9B7A6372304B587A384B1B7A834271
S2140832C005D0394B98472C4B5A7A344B1A722A4BEE
S2140832D01B78012B03D1284B586A344B98472F4B41
S2140832E0254A51791971D2789A70099B032B0AD10D
S2140832F0214B9B79294A5371012B06BF1E4BDA6B6B
S2140833000022264B1A641C4BDA79244B9B7993428D
S21408331007D0224B9A71283318AA12E9070083E8C7
S2140833200700154B19791D4AD1701B78023B072BED
S2140833306AD8DFE803F00441544159695E644046A0
S21408334012A91B4B9847154B9B7943455CD1194BE3
S21408335012AA07CA83E8070056E000BFAFF300804A
S21408336066666666666639407B14AE47E17A743FE1
S214083370FCA9F1D24D62503F0C1200201C1200200E
S2140833800DBE0800B5BE080079C4080021C50800AF
S2140833901D460800D5C30800ADCA0800C81100209D
S2140833A05DCA0800D18308009D010800894208000C
S2140833B0817E0800F0110020099B23B19B489C4998
S2140833C000229C4B984712AC204699490022994BFC
S2140833D09847994B94E8070083E8070014E006200E
S2140833E09549964B98470FE007209349934B984783
S2140833F00AE0934B8D4A07CA83E8070004E0904822
S21408340000210C228F4B98478F4B5B788F4A13709E
S214083410082B71D0099A022A6ED1072B67D8DFE8E5
S21408342003F0040A1129414A545E80488049002264
S214083430804B98475BE0854B7C4819695A787D4BEA
S214083440984754E07C48794B50F80C1C009110F8CB
S2140834501B2C0192CDF80890CDF80CA00C9A04927B
S214083460012205921946A3F1240253F80C3C784C25
S214083470A0473CE070486D4B50F80C1C009110F8C3
S2140834801B2C0192CDF80890CDF80CA00C9A04924B
S214083490002205921946A3F1240253F80C3C6C4C02
S2140834A0A04724E069494A78002300935F480969E1
S2140834B0684CA0471BE0654B5A78012100915B4891
S2140834C019690023634CA04711E0604B5A78002125
S2140834D000915648196901235E4CA04707E05B49EE
S2140834E04A7801230093514809695A4CA047524B21
S2140834F04E4A07CA83E80700534B187A534BD871CD
S214083500002800F01C81544B9847504BDB79012B60
S2140835100BD1524B5B78022B29D0514A137843F0D3
S214083520080313704F4B984721E0484B01221A7046
S21408353000221A71DA705A709A715A721A72474BC8
S2140835405B78022B10D0104615A9474B98470028E1
S21408355000F09A80454B18AA12E9070083E807008E
S214083560434B9847434B98470720434B98470020C0
S214083570364BD871E3E00120E1E00220DFE01420BA
S214083580DDE01820DBE01420D9E01420D7E0142072
S214083590D5E01820D3E01420D1E01420CFE0142082
S2140835A0CDE01820CBE01420C9E01420C7E017208F
S2140835B0C5E01520C3E01720C1E01420BFE01520A1
S2140835C0BDE01420BBE01920B9E00420B7E01B20BA
S2140835D0B5E01620B3E01C20B1E02520AFE01D20A2
S2140835E0ADE00720ABE01A20A9E01C20A7E01D20CC
S2140835F0A5E01420A3E01420A1E007209FE01A20ED
S2140836009DE007209BE0072099E01E2097E01F20FA
S21408361095E0162093E01A2091E020208FE02220E3
S2140836208DE023208BE0212089E000BF4012002097
S214083630000080BF6D3E0800E4110020817E08006F
S214083640FC110020C9D108000C120020C811002067
S214083650D13E080069430800695308008414002016
S214083660B41100201150080021800800F011002035
S2140836706D830800510108006D74080021205EE083
S2140836801A205CE024205AE0072058E0172056E06D
S2140836901C2E3FF426A807D8042E3FF414A80A2E9A
S2140836A03FF418A8FFF736B9352E3FF43CA85C2E31
S2140836B03FF440A81E2E7FF42DA9FFF723B81C2E32
S2140836C03FF411A806D8042E3EF4FFAF0A2E3FF4A6
S2140836D003A8DBE7352E3FF428A85C2E3FF42CA879
S2140836E01E2ED3D1FFF710B8052C3FF4D3AB072C0A
S2140836F03FF4DEAB032C7FF4E0ABFFF7C3BB052C2F
S2140837003FF4C8AB072C3FF4D3AB032C7FF4D5AB00
S214083710FFF7B6BB0B4B5C78082C7FF4DFABFFF7E4
S214083720D6BB084BDB78012B7FF46AAC5CE42BF441
S214083730487323F001039BB20022099290E519B062
S214083740BDE8F08F0C120020704700BF704700BF1E
S21408375000207047824B1B78002B40F0FF802DE935
S214083760F04F89B00546DFF85C8200240027DFF8B2
S21408377058A2DFF814B2E0B2D04707AB1855A946EE
S21408378045FA04F313F0010F14D0D8F80000D84710
S2140837900022744B744EB047CDE900013846D8472E
S2140837A0DDE90023714EB04720B9DDE90001704B12
S2140837B098470746013408F10408032CDBD16D4B03
S2140837C09B6C00934FF0040A0125DFF8948104A847
S2140837D069496A4B9847674B93F841C004AA604BFF
S2140837E00393194600231E461C469E4607F1004BC7
S2140837F049FA03F010F0010F16D00136F6B2C1F8F8
S21408380004E04CFA03F010F0010F05D015B1C2F829
S21408381000B006E0176004E00DB1176001E0C2F8DA
S21408382000B007A8185C0443013304320431032BA4
S214083830DED1534F3046B847524B984706460F4698
S2140838400098514B984732463B46474EB047064687
S2140838500F4688F81D404D4B984730463946444B2E
S2140838609847014604A80022494B9847494B984771
S214083870494B9847474F494E0DB188F81D40B84701
S214083880337813F0340F15D0444B1B7813F0300FF1
S21408389005D14DB1414B1B7813F0040F04D0404BB3
S2140838A09847404B984756E03C4A137803F0FB038A
S2140838B0137002E014F01C0FDED13B4B98473B4BCD
S2140838C098472C4BB3F84C00394B984795F00105B0
S2140838D008D0284C206D3749374B98470746636C05
S2140838E0009303E0234B1F6D9B6C00930AF1FF3A8D
S2140838F01AF0FF0A7FF46BAFDDF80CB01D4D0024FC
S2140839002E46DFF8B480204F49FA04F313F0010F6F
S21408391019D096F84130234113F0010F09D0686A90
S214083920316D264B98472968C047B847244B9847B7
S21408393007E0336D03F100402968C047B847204BBD
S2140839409847CBF8040001340BF1040B0435032C1C
S214083950DAD10E4B984709B0BDE8F08F704700BF24
S214083960841400200000F8BFB5BE0800D5C30800C0
S21408397079C408001015002088140020499608000D
S214083980C9BD0800DDA208000DBE0800BD4C080031
S21408399009490800218A0800DD840800B4110020BF
S2140839A06D4408001150080079880800214808006E
S2140839B0899608000000A04035C7080025C50800FD
S2140839C0A1A00800341500204D830800704700BFEA
S2140839D02DE9F04FA9B01E4B98474FF400421D4BF7
S2140839E05A601D4B98471D4B98471D4B98471D4BD3
S2140839F098471D4A0024134643F8044B5460043382
S214083A0043F8044B43F8044B43F8044B43F8044B81
S214083A1043F8044B1C6001231370144B984732205C
S214083A20134B9847134B9847134B98472046134B0E
S214083A3098478DF81F00552826D0114B984728A977
S214083A40552301F8813D204601220E4B98471DE07C
S214083A5065020800501A0E40D16A08002183080043
S214083A60F58808001592080084140020F1960800CE
S214083A70796C0800B56E080055240800652408000F
S214083A80CD7108006D240800A24B9847962305932D
S214083A909B4641F2883304939F4DA04C4FF46160D7
S214083AA0059B00FB03F09E4B98479E4B9861D86198
S214083AB018629D4B98474CF6E0709C4B9847002040
S214083AC04CF6E0719A4B98479A4B984702460DF188
S214083AD0200948469849DFF8A8A2D047CDF80090B4
S214083AE0002301930A20C8211A46A8474846934946
S214083AF05A46D047CDF80090012301934FF47843F7
S214083B000293052703970A2040F26D11C8226E23F8
S214083B10DFF89082C047484688490022D047CDF84B
S214083B2000900223019340F2FF79CDF8089003979E
S214083B30DC2040F26D11C8226E23C047804B0093EC
S214083B4003230193CDF8089003974FF42070394665
S214083B5096226E23C0477B4B009304230193CDF82F
S214083B60089003974FF420707D2196226E23C04755
S214083B70754B00930197CDF8089003974FF4207083
S214083B80F52196226E23C047704B009306230193B7
S214083B90CDF8089003974FF4207040F26D119622E6
S214083BA06E23C0476A4B0093072301931F23029393
S214083BB003970A20F521C8226E23C04700206549CE
S214083BC0654B984765486649664B9847664B187034
S214083BD038B1664B0093002301930A2064211A46E5
S214083BE0A847DDF81080624B9847624B9847624BAF
S214083BF01B68012B1ED100225F4B1A6008A85F497C
S214083C005A4643465E4EB04708A85E4B98475E4AFB
S214083C10137843F0020313705C4B5B78082B06D1CD
S214083C20534F5A4EA047B8477378082BFAD00A2045
S214083C30574B9847504B1B68022B1DD100224E4B02
S214083C401A6008A8534942464D4B984708A84D4B5A
S214083C5098474D4A137843F0020313704B4B5B7832
S214083C60082B06D1424F494EA047B8477378082B11
S214083C70FAD00A20464B9847474B1B68032B40F060
S214083C80A7800022444B1A60DFF8F0903C4F08A843
S214083C9049465A464346B84708A83A4B98473A4AC8
S214083CA0137843F002031370384B5B78082B16D151
S214083CB03A4EA04708AB0093002301930A204FF41E
S214083CC096711A46A84733781BB100233370284BE1
S214083CD09847284B98472D4B5B78082BE9D0264BFE
S214083CE01B68042B74D00A20294B984708A82C492F
S214083CF04246B84708A8234B9847234A137843F008
S214083D0002031370214B5B78082B59D1234EDFF83A
S214083D1060A049E03D6C080079560800115008007C
S214083D208DC6080010150020696708002D5E08007B
S214083D3051550800B1960800781409008414090043
S214083D408C14090098140900A4140900B01409007A
S214083D50BC14090050120020B11F0800A814002047
S214083D60C8140900D91F0800CC140020CC14090078
S214083D7061970800B56E0800FC140020D8140900E6
S214083D8091D20800FD520800B411002084140020C7
S214083D90796C0800E4140900001500204A0F00207A
S214083DA0F01409008D680800A047337813B1002383
S214083DB03370D047224B9847224B5B78082BF3D0BA
S214083DC0214B1B68042B03D00A20204B98475EE73C
S214083DD01D4B1B68042B09D100221B4B1A601C487C
S214083DE004991C4B1C4EB047049057E6164B1B68AC
S214083DF0052B0AD10022144B1A601848594642F27D
S214083E001073154FB847834648E60F4B1B68062BBA
S214083E100AD100220C4B1A601148059942F2107319
S214083E200D4FB847059039E6074B1B68072B7FF4FC
S214083E30DAAE0022044B1A600A480B4B98472DE668
S214083E40B56E080084140020FC140020796C080065
S214083E509C140900A0860100696F0800D822090092
S214083E60B4140900601D09000D9908002DE9F843EF
S214083E700746894690460F4B93F8403013F0200FBC
S214083E8001D00D4B98470D4B5B78022B0FD00C4D8D
S214083E900A4C0C4EA84723784BB9B04710B10A4BCA
S214083EA09847F7E7384649464246084B9847BDE8DC
S214083EB0F88300BF10150020CD39080084140020B0
S214083EC011500800F148080059530800094908002D
S214083ED02DE9F04F93B005901191164699469DF836
S214083EE0744006949DF878709DF87C409DF8805044
S214083EF00C95BB00024618440990F0180E9056F828
S214083F002780974D404652F82710A8470790A300E9
S214083F10059901EB030BF2180F9256F824A05046A9
S214083F2051F82410A847089008F1004200920AF1B8
S214083F30004A8C4E119B53F827000799B0478046D5
S214083F40119B53F824000899B0470746864C0098FA
S214083F503946A047029050464146A0470146029877
S214083F60B047824EB047CDE9020100984146A047C7
S214083F70804650463946A04701464046A847B047BF
S214083F8002460B46DDE90201794CA047794B984773
S214083F9002909DF884309BB1B04704460D4668A34E
S214083FA0D3E90023744EB047F8B12046294666A3E5
S214083FB0D3E90023714CA0476E4B9847029014E053
S214083FC002986A4B984704460D4661A3D3E9002336
S214083FD06B4EB04748B1204629465BA3D3E9002379
S214083FE0684CA047634B98470290674BDC6BDFF83A
S214083FF0708148464946C0470A905A4F5A4D5B4E0C
S2140840000A982146B84701462046A847B0475F4B5E
S2140840109847CDE90A010298B0475D4F00225D4BEC
S214084020B84704460D464846B04702460B46204663
S2140840302946B84721F000431946DDE90A23564CBD
S214084040A047564B9847564B98471FFA80F9B9F140
S214084050000F00F0FF80069B3BB14846514B98473F
S21408406001461C98404B98471C9048464D4B98472D
S21408407006464D4C02983146A047074610900599CB
S2140840800C9A01EB8208374D119B1846134650F8D8
S214084090220051F82310A8473146A0470A90324C10
S2140840A038463E463946A04701464FF08040A84766
S2140840B005462E4F3046B847354E27A3D3E900238A
S2140840C0B047CDE902012846B8470022374B2D4FA6
S2140840D0B84702460B46DDE90201B047254B98472C
S2140840E00C9028464FF07C51A0470D90B9F1010F6F
S2140840F040F2B080012500265F46CB46B146B9F1AE
S2140841000B0F55D850460D99A047064600980C99AF
S214084110A0473146124B9847064600980D99A04787
S214084120009050460C99A047014600980D4B9847BA
S214084130009009F101095FFA89F9B2466DE000BFFF
S2140841408DEDB5A0F7C6A0BE182D4454FB21194026
S2140841508DEDB5A0F7C6A03E4BDA7D5C5555C53F3C
S21408416025C5080021C5080035C708000DBE08008B
S214084170D9A2080079C40800C1C308004DBB0800CE
S214084180ADC3080051BB080010150020DDA20800CA
S214084190B5BE08000000E03F09C10800899F080076
S2140841A039C408008DC608009DC8080000001040E5
S2140841B028462C4B98471099A0472B4B9847CDE993
S2140841C000012A4B98472A4EB0478146DDE9000190
S2140841D0284B9847B04702900E9B1E6806F100468B
S2140841E00F9BD3F800A030464946A047009050469B
S2140841F00299A047014600981F4B984700900298DE
S2140842003146A047064648465146A047014630462E
S2140842101A4B984782464FF00009174E07980099A0
S214084220B047099B186008985146B0473860D8F8D8
S21408423000000A99B047C8F8000005981C99069A25
S2140842400F4B98470F4B1B784BB90135ABB25B4504
S214084250FFF455AF11981C99069A094B984713B066
S214084260BDE8F08F8DC608000DBE0800F99E080050
S21408427079C40800D1A1080025C5080021C5080092
S2140842806D3E0800841400201A4B5B78022B30D051
S2140842902DE9F0418046184D1849A847184FB847E9
S2140842A0184EB047184B984784B2184B9847404664
S2140842B01749A8470546322000FB04F0154B9847D7
S2140842C001462846144B9847B847B047134B9847BB
S2140842D0134B98475CB1134E064D134FB0472B78D7
S2140842E02BB93220B847013CA4B2002CF6D1BDE861
S2140842F0F08170478414002035C708000000A041EC
S2140843000DBE0800899F080039C4080069530800D4
S21408431000007A448DC6080021C50800E9C30800D5
S2140843208996080011500800A596080010B5084B95
S21408433098470420074CA0470320A047064B9847F9
S214084340064B1B781BB9064B9847064B984710BD7B
S2140843504D3708005537080011500800841400200F
S2140843601525080049370800F8B5314C6478022C42
S2140843705DD01C4615460F4606462E4B984700222B
S2140843802B4B1A7720462C4B98472C4B984730B126
S2140843902B4A137843F0100313702A4B9847244B84
S2140843A01B78002B43D1304639462A46264B984779
S2140843B00122264B1A70264A137843F0020313701C
S2140843C0204D1B4CA8472378002B30D16378002B50
S2140843D0F8D11E4B1B78DBB2012B11D19DF8183093
S2140843E043B1134B03F11004043393E8070084E841
S2140843F0070008E0124A137843F01003137002E02F
S21408440001220B4B1A770022104B1A700D4B984757
S214084410074B1B785BB90F4B98470F4B98470F4BCA
S214084420984730460E490F4B98470F4B9847F8BDAC
S2140844308414002069530800854F0800B14F08000F
S214084440B6110020115008006D3E0800B511002076
S214084450B41100207988080021480800BD4C0800DF
S21408446088140020499608009978080008B5114B6A
S2140844701B7813F0100F1CD10E4A137843F0100364
S21408448013700D4B98470D4B98470D4B5B7813F000
S2140844900C0F03D10A4A9278012A0AD1042B094A3A
S2140844A013780CBF43F0200343F008031370064B41
S2140844B0984708BDB41100206D8308005101080014
S2140844C084140020B61100205D8508000000000056
S2140844D02DE9F04F83B00B78C418C35C2D2B04D19C
S2140844E0A51C63784FF0010B06E02B2B12BF651C4A
S2140844F0A51C63784FF0000B00273E463C46BE4698
S2140845004FF0010C303BDBB2092B0FD80136F6B260
S214084510082E07D80FB1013CE4B20EEB8E0E03EB63
S2140845204E0E07E037B90134E4B203E0FE2B04D19F
S2140845302FB9674615F8013BE4E7274600E027460B
S214084540002E50D092460191009070462C4B98470A
S214084550064600212B4B9847002833D17FB2B7F187
S214084560FF3F12DADFF8A490DFF8A480264F304623
S214084570C8471FA3D3E90023C047B8470234E4B2AC
S21408458063B2B3F1FF3FF3DB064614F0800F0BD09F
S21408459030461E4B984718A3D3E900231C4CA04767
S2140845A0194B984706460DE063B2002B0ADD194FF3
S2140845B0DFF8648030464146B847631E13F0FF04B0
S2140845C0F9D10646BBF1000F04D006F10046CAF83A
S2140845D0006001E0CAF80060009BED1A013D019BEF
S2140845E01D70012000E0002003B0BDE8F08F00BF7A
S2140845F07B14AE47E17A843F9A9999999999B93F7D
S21408460085C608005DCA080079C408000DBE080003
S214084610B5BE080035C70800000020412DE9F04166
S21408462006468846094C0A4D0A4F30463146A0478A
S214084630064640464146A04701463046A847B84782
S214084640054B9847054B9847BDE8F08135C70800E5
S21408465025C508000DBE0800DDA2080079C40800BC
S2140846602DE9F04F85B0664B1C78002C08BF122445
S214084670013CE4B25E78A64200F0BF8027462C23B1
S2140846805F4D03FB0455D5F81C80A86A01465D4BB0
S2140846909847E96A5C4B98470546404629465B4B6F
S2140846A0984700B9A8462C23554A03FB0723C3F8A6
S2140846B01880002C08BF1224013CE4B2A64208D099
S2140846C02C22534B02FB073301934D4E06F1040B85
S2140846D043E04B4B93F81C33B34241D14D4B9847BC
S2140846E03EE027462C2505FB04B5002C08BF1224FF
S2140846F0013CE4B296F81C33A34201D1454B9847D7
S2140847002C2303FB0763D3F81C8098694146424B69
S214084710984708BB4FF02C0909FB0769DFF8E4A0A7
S214084720D9F828000146D047D9F82C10364B9847B8
S214084730019B5969D047814640464946374B9847BA
S21408474028B12C2303FB0767C7F8189004E02C232E
S21408475003FB0767C7F8188001957378A342C0D192
S214084760274E777804362C2303FB07667C1C04F058
S214084770FF04122C08BF0024214B93F800809A46A9
S214084780043303934FF02C0B33E025460BFB04F35E
S214084790039A1A440192D6F8149053449B690293DC
S2140847A048461946194B9847A0B1706A0146154BFA
S2140847B09847B16A144B984701464846114B9847A4
S2140847C0064602983146154B984718B10BFB04A3CA
S2140847D09E6127460BFB05A5A869E9690E4B984715
S2140847E0002818BF27460134E4B2122C08BF00245C
S2140847F0019E4445C9D1024B5F7005B0BDE8F08FF5
S2140848000C0C002025C5080035C7080071CA08002A
S214084810100C0020ED8908005DCA0800ADCA080023
S2140848200B4B0022C3F82023C3F82423C3F82823FD
S214084830C3F82C23C3F83023C3F83423C3F838232B
S21408484083F81C231A70012183F83C135A707047AA
S2140848500C0C00200A4B93F81C231B7893420ED0AE
S214084860531C03F0FF03122B08BF002304494978A2
S214084870914204BF024A5370014A82F81C337047BB
S2140848800C0C0020054A92F81C3312789A421DBF79
S2140848902C20034A00FB0320002070470C0C002045
S2140848A0100C002038B50E4B93F81C33013303F078
S2140848B0FF03122B08BF0023094A12789A420DD02C
S2140848C02C24074A04FB032303F11404054D6068EF
S2140848D0A847054B9847054B984738BD002038BD74
S2140848E00C0C00200DBE0800DDA2080079C40800E4
S2140848F0044B93F81C0393F83C33984214BF0020EB
S214084900012070470C0C00202DE9F04F8DB0009167
S21408491002927D4B93F800B02C2606FB0BF69A19EC
S214084920002454610021D162147178499162A0F183
S214084930040A04331E44DFF81892DFF8F881154697
S214084940CDF804B05FFA84FB5AF8040F59F824101F
S214084950C0476F4B98476F4B984709AB43F82400FE
S214084960694B03F5487353F82430C01A80EAE0729E
S214084970A2EBE07246F8042F6B69934238BF1346E1
S2140849806B61654B984759F82410644B984707465F
S21408499006AB43F824000021614B984728B15846D7
S2140849A0604B98472B791843287138463946C047D4
S2140849B0E96A5D4B9847E8620134032CC2D1DDF8FA
S2140849C004B00746524C3846A047584B9847584BB1
S2140849D0984704462C234C4A03FB0B23D8625B6992
S2140849E0002B00F04281009800214D4B984780B973
S2140849F0029B23B1009821464E4B9847009000989A
S214084A004FF07E51464B984728B14FF07E5300939F
S214084A1001E03E4B00934FF07E5021463F4B9847AF
S214084A20049006AC444E454D0DF12408002301932E
S214084A30DFF800912C22A6F54B7302FB0B3ACDF853
S214084A4014B0D34654F8047B384600213C4B9847AC
S214084A5000282FD104983946C8470346029044F8E0
S214084A60040C4FF07E5019462C4B984720F0004A0D
S214084A700395504655F80C1CC84707460099314B15
S214084A80984700B90097DBF828705046039B1968CA
S214084A90C847824638465146214B984700B957467C
S214084AA0CBF8287002983168C84701460198264B0B
S214084AB098470190043604354445C3D1DDF814B050
S214084AC0114B1A7893F81C339A4207D12C230E4AB6
S214084AD003FB0B2300229A611A6285E001980C4BAF
S214084AE0984704460D4606A3D3E90023174EB04759
S214084AF080B32C23044A03FB0B2300221A6273E0BC
S214084B00E90B21E7FDFFEF3F0C0C00209976967E17
S214084B100DBE0800A1A008008DC608009DC80800A4
S214084B2071CA08005D83080025C50800DDA20800D4
S214084B3079C4080035C70800380F0020281500205B
S214084B405DCA0800ADCA080021C50800D5C308001C
S214084B50101500202046294645A3D3E90023464CD5
S214084B60A04708B9454B0193454E019D454F464C15
S214084B702846B04702460B4600204449B84700225C
S214084B80434BA047434B9847434B984780462C23B4
S214084B90424A03FB0B23424C986A424B996BA04748
S214084BA04146A047B04704460D464046B047024631
S214084BB00B4600203549B84702460B46204629468C
S214084BC0394CA04704460D4600220023374EB0470E
S214084BD020B920462946304B984700E000202C2371
S214084BE02E4A03FB0B231862009908462C4B98475D
S214084BF005462A4A2C2303FB0B2358621E6AD2F862
S214084C00384321462A4B984708B9204600E02846EC
S214084C103146284B984738B928462146244B9847AA
S214084C2008B9264600E02E461C4C2C2303FB0B43F3
S214084C30DE6104F54B7306AA07CA83E80700C4F8C2
S214084C40385304F548730CAA12E9070083E80700EE
S214084C5094F83C332370013303F0FF03122B08BF8C
S214084C60002384F83C33144B98470DB0BDE8F08F0A
S214084C70E90B21E7FDFFEFBFD5C30800EFFF7FBFB5
S214084C800DBE08004DBB0800B5BE08000000F03F8A
S214084C900000E03FDDA2080079C408000C0C0020E4
S214084CA035C708001015002009C1080099C3080078
S214084CB071CA0800ADCA080061460800054B064AD6
S214084CC05168C3F820139168C3F82413D268C3F850
S214084CD0282370470C0C002084140020044A1378FC
S214084CE092F81C03834238BF1233181AC0B27047B2
S214084CF00C0C002008B5044B9847044B93F81C236B
S214084D005A70034B984708BDED8908000C0C002024
S214084D106146080038B50446007828B1034DA84710
S214084D2014F8010F0028FAD138BD00BF417E0800EC
S214084D30F8B500AF1446D31D23F00703ADEB030DFB
S214084D40CAB16D460DF1FF33561EF6B26E44B0FB7F
S214084D50F1F201FB120003F8010FD0B2B342F6D10C
S214084D60064E2B1913F8010C3030C0B2B047013C80
S214084D7014F0FF04F5D1BD46F8BD00BF417E08001B
S214084D8008B502210822014B984708BD314D080096
S214084D9008B5092804D9642834BF0222032200E093
S214084DA001220A21014B984708BD00BF314D080073
S214084DB02DE9F04184B006460D460021374B98474A
S214084DC020B12D20364B984706F10046012D0ED906
S214084DD02C46344FDFF8E08030464146B847064652
S214084DE0023CE4B2012CF7D805F0010300E02B469C
S214084DF023B130462C492B4B9847064630464FF091
S214084E007C512A4B98472A4B98472E2204AB2B44B2
S214084E1003F80C2C0346C8B100246E1CF6B2254FC6
S214084E20AC4214BF22463246541CE4B204A91144CC
S214084E30A7FB0302D20802EB8200A3EB4003303341
S214084E4001F80C3C1346002AEAD100E00024A542EB
S214084E500AD93022631CDBB204A90C4404F80C2CD3
S214084E601C46AB42F6D102E0A54209D12546AC1C49
S214084E70E4B26B1CDBB204AA1344302203F80C2CF1
S214084E804CB1074D04AB234413F80D0CA847013C5E
S214084E9014F0FF04F6D104B0BDE8F08171CA08002A
S214084EA0417E080035C708000000204125C50800D7
S214084EB0C1CA0800CDCCCCCC0000C8420000000017
S214084EC010B50D4B93F8403013F0010F0CD00B4B78
S214084ED0984707A3D3E90023094CA047094B9847EE
S214084EE00421094B984710BD0321074B984710BD6E
S214084EF06568E1575128A43F101500200DBE08002C
S214084F00B5BE080079C40800B14D080000000000CE
S214084F1010B50D4B93F8403013F0010F0CD00B4B27
S214084F20984707A3D3E90023094CA047094B98479D
S214084F300121094B984710BD0021074B984710BD23
S214084F406568E1575128A43F101500200DBE0800DB
S214084F50B5BE080079C40800B14D080008B503219D
S214084F60014B984708BD00BFB14D0800044B9A6B2B
S214084F7022F020029A639A6B42F020029A637047E6
S214084F80000E0E400022084B1A70084B93F940306A
S214084F90934202DB2022044B1A7020B1024A13788F
S214084FA083F0200313707047CD14002010150020DE
S214084FB0034B9B6B03F02003024A10785840704757
S214084FC0000E0E40CD1400200D4B1B78DBB2012BD3
S214084FD014D110B50B4B984778B10022084B1A70BD
S214084FE0094B03F11004043393E8070084E807002C
S214084FF0064A137843F04003137010BD704700BF8D
S214085000B5110020B14F080084140020B411002008
S21408501030B583B0A84DA94C2B78DBB28DF8073095
S2140850209DF8073013F0FF0F41D00122A44B5A70A9
S2140850309DF8073013F0020F03D01046A14B98478F
S21408504022E09DF8073013F0040F03D002209D4B92
S214085050984719E09DF8073013F0080F03D003208F
S214085060984B984710E09DF8073013F0100F03D0C0
S2140850700420944B984707E09DF8073013F0200F5C
S21408508002D005208F4B98479DF8073013F0010F84
S2140850900AD001208C4B9847237803F0EF0323703F
S2140850A0237813F0100FFBD02B7800232B7023786F
S2140850B0DBB28DF807309DF8073013F0FF0F00F0CD
S2140850C0D2809DF8073013F0100F03D001227C4BD6
S2140850D01A70EEE09DF8073013F0010F05D07B4BF1
S2140850E09847237803F0FE0323709DF8073013F0E3
S2140850F0680F50D0724B5B785BB113F07C0F40F0B2
S214085100D58044E0724B98476D4B01229A705A78C6
S21408511042B902226A4B9A709DF8073013F0400F86
S2140851200AD10EE09DF8073013F0400F09D0082A80
S21408513002D14022624B5A70614A937843F00803C2
S21408514093709DF8073013F0080F07D05C4B5B7818
S21408515013F0200F02D11022594B5A709DF80730D1
S21408516013F0200F13D00620574B9847544B9B78C4
S21408517013F0020F05D09DF8072042F004028DF8C0
S21408518007204F4A43F00403937020235370237874
S21408519003F0970323709DF8073013F0020F41D0F1
S2140851A09DF8073013F0680F38D1454B5B783BB154
S2140851B013F0500F32D0424B9B7813F0020F2DD0CD
S2140851C03F4B9B7813F0040F12D0424B587A30B1FD
S2140851D0D968414B98474FF47A60404B98473D4B07
S2140851E0187A28B13E4B98474FF47A703B4B98474D
S2140851F03C4B984760B1324B9B7813F0080F07D1A9
S21408520008222F4B5A70384B9847384B984702E07D
S21408521000222B4B5A700022294B9A70237803F0F1
S214085220FD0323709DF8073013F0040F1BD0244BA2
S2140852305B7813F0300F0ED0214B9B7813F0040FD9
S21408524003D02B4B98472B4B98471D4A937843F02F
S2140852500203937003E01A4B00229A705A70237860
S21408526003F0FB032370164B5B7813F07C0F01D01A
S2140852701D4B9847124B5B78202B0AD1104B9B7816
S21408528013F0020F05D01C4B984710B910220C4B90
S2140852905A700B4B9B78002B7FF4BEAE09E09DF846
S2140852A0073013F0400F7FF447AF4AE7082BF6D1D4
S2140852B028E703B030BD00BFB6110020B4110020A7
S2140852C084140020F97308006D740800297C08000F
S2140852D0ED890800C8110020A183080089960800F7
S2140852E07D01080085480800218A0800DD8408003A
S2140852F06D830800510108002D92080010B5044679
S214085300104B9847104B1B78D3B923781BB900204D
S2140853100E4B984710BD242B05D120460C4B9847BA
S2140853200A4B984710BD084B5B78012B03D1092020
S214085330064B984710BD2046064B9847034B9847A0
S21408534010BD00BF1150080084140020F172080038
S2140853507D92080031250800024A137843F00203BC
S21408536013707047B411002070B5074B9847074D67
S214085370074C084EA84723782BB9B0470028F9D120
S2140853806378082BF6D070BD5953080011500800F2
S2140853908414002085480800F0B4047884B91AE01C
S2140853A012F8011FA14204D100E03B46EB5C0370F3
S2140853B002E00133242BF3D110F8014F1CB90AE0A0
S2140853C0064D0027012695F82430A342EDD005F1B6
S2140853D024023346E4E7F0BC704700BF0400002010
S2140853E00B7863B110B402460C460020934204BF03
S2140853F0081BC0B211F8013F002BF7D101E00020CE
S21408540070475DF8044B70470A4A136913F4007F27
S214085410FBD0084BD8601A46136913F0020FFBD06E
S214085420044A136913F0010FFBD0024B9868C0B208
S214085430704700BF00800040F8B507460A4AD36B9D
S21408544013F4807FFBD0084AD36B13F4807FFBD01D
S214085450054C4FF4807565630020044EB047384607
S214085460B0472563F8BD00BF00140E400954080075
S2140854700A4AD36B13F4807FFBD0084AD36B13F425
S214085480807FFBD070B5054C4FF48075656340206F
S214085490034EB0470020B047256370BD00140E4089
S2140854A009540800F8B507460A4AD36B13F4807FF8
S2140854B0FBD0084AD36B13F4807FFBD0054C4FF41F
S2140854C0807565638020044EB0473846B04725632C
S2140854D0F8BD00BF00140E400954080070B54020FF
S2140854E00A4EB0470A4DA84760F07F00C0B2094C84
S2140854F0A0472120B047A84700F05F0040F0010011
S214085500A0470122044B1A7070BD00BFA5540800BE
S21408551071540800395408004C120020F8B50746A4
S2140855200E462A20084DA847F8B2084CA0472B205C
S214085530A847380AA0472C20A847F0B2A0472D2035
S214085540A847300AA047F8BDA554080039540800F3
S214085550F8B507460E466320124DA847F80A124CBF
S214085560A0476420A847C7F34510A0476520A8476A
S21408557007F01F00A0476020A847F00AA047612050
S214085580A847C6F34510A0476220A84706F01F00A4
S214085590A0472220A847054B984700F0BF00A04721
S2140855A0F8BD00BFA5540800395408007154080017
S2140855B010B5032828BF032004462220074B984727
S2140855C0074B984720F00F0040EA840000F0FC00E4
S2140855D02043044B9847044B1C7010BDA554080084
S2140855E07154080039540800A4140020F0B5C1B05E
S2140855F0044611BB194B984785B2684621466A1C73
S214085600174B98476846174B9847174B1B780BB9A4
S214085610164B98470220164B9847E5B16E466C46DF
S214085620144F14F8010BB847A31B9BB29D42F8D839
S21408563011E002200E4B9847F0E70D4668462146D3
S2140856406A1C074B98476846064B9847064B1B78D4
S214085650002BEED1DCE741B0F0BD00BF99D30800BF
S214085660DDD00800995308004C120020DD540800CD
S214085670A5540800395408002DE9F04FB7B0044681
S2140856800E4690461F469DF804B14098704B9847C2
S21408569005461BA840996A1C6E4B9847B8F1000F40
S2140856A035D0A04580F0C480A0441FFA88F8C4EB23
S2140856B008094FEAC903684A127802FB0333033B1A
S2140856C09D4204DD36AA1344002203F86C2C1BA85E
S2140856D05F4B9847B8F1000F19D00BF00303022B65
S2140856E015D15D4B1B780133C00003FB00F08145E4
S2140856F00DDDC0EB0900DB0090FBF3F30333574ADC
S21408570000921BA85649409ADBB2564DA8471BA8DC
S2140857104F4B9847504B1B7803F10109C00009FB13
S21408572000FA4FB1BF1BDB4307EB031707EBD7772E
S214085730C7F34F073E44B6B20BF0030BBBF1010F9D
S2140857400AD0BBF1020F66D1C4EB08039A4562DAA9
S214085750CAEB0804A4B25EE04546C4EB0808C24596
S21408576050DDCAEB080808EBD87804EB6804A4B246
S21408577020201BA93C4B984710F0FF0F42D0C7B219
S21408578002A81BA93A46DFF8CCB0D84736AB3B444C
S2140857904FF0000203F8D02C02A8DFF8B480C04708
S2140857A02D1B4FEAC90900FB195004EB500000EB0B
S2140857B06900A6F1100180B289B2DFF8B0A0D04720
S2140857C002A80021DFF8A890C8471BA8C047C21B3C
S2140857D0791C02A81BAB1944D84702A8C0471E4B21
S2140857E01B780133DB0000FB135004EB500000EB82
S2140857F0630006F1100180B289B2D04702A80021E2
S214085800C84722E02D1BCAEB050A0AEBDA7ACAF368
S2140858104F0A5444A4B220463146144B98471BA856
S2140858200021134B984710E01BA8094B984754E7EC
S214085830C4EB08094FEAC903074A127802FB033388
S214085840033B9D423FF73EAFEEE737B0BDE8F08F2B
S21408585099D30800DDD00800A4140020601D0900B4
S2140858601017090091D20800E15308001D550800DA
S214085870ED55080008B54020054B9847054B984756
S21408588000F07F00044B98470022044B1A7008BDAE
S214085890A554080071540800395408004C1200201A
S2140858A008B54120024B98478020024B984708BD10
S2140858B0A554080039540800F0B5ADF5017D074633
S2140858C0204B1B78834239D01F4E4FF480750DEB62
